{
  "contractName": "engine",
  "abi": [
    {
      "constant": true,
      "inputs": [],
      "name": "userCount",
      "outputs": [
        {
          "name": "",
          "type": "uint256"
        }
      ],
      "payable": false,
      "stateMutability": "view",
      "type": "function"
    },
    {
      "constant": true,
      "inputs": [
        {
          "name": "",
          "type": "uint256"
        }
      ],
      "name": "integerset",
      "outputs": [
        {
          "name": "",
          "type": "address"
        }
      ],
      "payable": false,
      "stateMutability": "view",
      "type": "function"
    },
    {
      "constant": true,
      "inputs": [
        {
          "name": "",
          "type": "address"
        }
      ],
      "name": "userinfo",
      "outputs": [
        {
          "name": "u_id",
          "type": "uint256"
        },
        {
          "name": "block_id",
          "type": "address"
        },
        {
          "name": "name",
          "type": "string"
        },
        {
          "name": "phno",
          "type": "string"
        },
        {
          "name": "email",
          "type": "string"
        },
        {
          "name": "house_address",
          "type": "string"
        }
      ],
      "payable": false,
      "stateMutability": "view",
      "type": "function"
    },
    {
      "constant": true,
      "inputs": [
        {
          "name": "",
          "type": "uint256"
        }
      ],
      "name": "personalset",
      "outputs": [
        {
          "name": "u_id",
          "type": "uint256"
        },
        {
          "name": "civil_score",
          "type": "uint256"
        },
        {
          "name": "interestRate",
          "type": "uint256"
        },
        {
          "name": "city",
          "type": "string"
        },
        {
          "name": "salary",
          "type": "string"
        },
        {
          "name": "permission",
          "type": "uint256"
        }
      ],
      "payable": false,
      "stateMutability": "view",
      "type": "function"
    },
    {
      "inputs": [],
      "payable": false,
      "stateMutability": "nonpayable",
      "type": "constructor"
    },
    {
      "constant": false,
      "inputs": [
        {
          "name": "aa",
          "type": "address"
        },
        {
          "name": "_perm",
          "type": "uint256"
        },
        {
          "name": "_name",
          "type": "string"
        },
        {
          "name": "_phno",
          "type": "string"
        },
        {
          "name": "_email",
          "type": "string"
        },
        {
          "name": "_home",
          "type": "string"
        },
        {
          "name": "_civilscore",
          "type": "uint256"
        },
        {
          "name": "_interestRate",
          "type": "uint256"
        },
        {
          "name": "_city",
          "type": "string"
        },
        {
          "name": "_salary",
          "type": "string"
        }
      ],
      "name": "addUser",
      "outputs": [],
      "payable": false,
      "stateMutability": "nonpayable",
      "type": "function"
    },
    {
      "constant": false,
      "inputs": [
        {
          "name": "_id",
          "type": "uint256"
        }
      ],
      "name": "claim",
      "outputs": [
        {
          "name": "a1",
          "type": "address"
        },
        {
          "name": "out1",
          "type": "string"
        },
        {
          "name": "out2",
          "type": "string"
        },
        {
          "name": "out3",
          "type": "string"
        },
        {
          "name": "out4",
          "type": "string"
        }
      ],
      "payable": false,
      "stateMutability": "nonpayable",
      "type": "function"
    }
  ],
  "bytecode": "0x60806040523480156200001157600080fd5b506200018273ade14d335409696e0057151c4df025e4af83d22860016040518060400160405280600581526020017f70617274680000000000000000000000000000000000000000000000000000008152506040518060400160405280600681526020017f39383938313800000000000000000000000000000000000000000000000000008152506040518060400160405280600c81526020017f706172743140676d2e636f6d00000000000000000000000000000000000000008152506040518060400160405280600681526020017f6b65736861760000000000000000000000000000000000000000000000000000815250610320600c6040518060400160405280600581526020017f64656c68690000000000000000000000000000000000000000000000000000008152506040518060400160405280600681526020017f31303030303000000000000000000000000000000000000000000000000000008152506200074860201b60201c565b620002f273770a036484e998662d29196f39887b761ecaddb160016040518060400160405280600681526020017f70617274683200000000000000000000000000000000000000000000000000008152506040518060400160405280600681526020017f39383938313100000000000000000000000000000000000000000000000000008152506040518060400160405280600c81526020017f706172743240676d2e636f6d00000000000000000000000000000000000000008152506040518060400160405280600781526020017f6b65736861763200000000000000000000000000000000000000000000000000815250610320600c6040518060400160405280600681526020017f64656c68693200000000000000000000000000000000000000000000000000008152506040518060400160405280600681526020017f32303030303000000000000000000000000000000000000000000000000000008152506200074860201b60201c565b6200046273c257274276a4e539741ca11b590b9447b26a805160016040518060400160405280600681526020017f70617274683300000000000000000000000000000000000000000000000000008152506040518060400160405280600681526020017f39383938313700000000000000000000000000000000000000000000000000008152506040518060400160405280600c81526020017f706172743340676d2e636f6d00000000000000000000000000000000000000008152506040518060400160405280600781526020017f6b65736861763300000000000000000000000000000000000000000000000000815250610320600c6040518060400160405280600681526020017f64656c68693300000000000000000000000000000000000000000000000000008152506040518060400160405280600681526020017f33303030303000000000000000000000000000000000000000000000000000008152506200074860201b60201c565b620005d273ade14d335409696e0057151c4df025e4af83d22860016040518060400160405280600681526020017f70617274683400000000000000000000000000000000000000000000000000008152506040518060400160405280600681526020017f39383938313700000000000000000000000000000000000000000000000000008152506040518060400160405280600c81526020017f706172743440676d2e636f6d00000000000000000000000000000000000000008152506040518060400160405280600781526020017f6b65736861763400000000000000000000000000000000000000000000000000815250610320600c6040518060400160405280600681526020017f64656c68693400000000000000000000000000000000000000000000000000008152506040518060400160405280600681526020017f34303030303000000000000000000000000000000000000000000000000000008152506200074860201b60201c565b62000742733e6c109e49a7a1effe3bb82ef436bf524e71ecc460016040518060400160405280600681526020017f70617274683500000000000000000000000000000000000000000000000000008152506040518060400160405280600681526020017f39383938313700000000000000000000000000000000000000000000000000008152506040518060400160405280600c81526020017f706172357440676d2e636f6d00000000000000000000000000000000000000008152506040518060400160405280600781526020017f6b65736861763500000000000000000000000000000000000000000000000000815250610320600c6040518060400160405280600681526020017f64656c68693500000000000000000000000000000000000000000000000000008152506040518060400160405280600681526020017f35303030303000000000000000000000000000000000000000000000000000008152506200074860201b60201c565b62000a67565b600080815480929190600101919050555089600160008054815260200190815260200160002060006101000a81548173ffffffffffffffffffffffffffffffffffffffff021916908373ffffffffffffffffffffffffffffffffffffffff1602179055506040518060c0016040528060005481526020018b73ffffffffffffffffffffffffffffffffffffffff16815260200189815260200188815260200187815260200186815250600260008c73ffffffffffffffffffffffffffffffffffffffff1673ffffffffffffffffffffffffffffffffffffffff1681526020019081526020016000206000820151816000015560208201518160010160006101000a81548173ffffffffffffffffffffffffffffffffffffffff021916908373ffffffffffffffffffffffffffffffffffffffff16021790555060408201518160020190805190602001906200089f929190620009b8565b506060820151816003019080519060200190620008be929190620009b8565b506080820151816004019080519060200190620008dd929190620009b8565b5060a0820151816005019080519060200190620008fc929190620009b8565b509050506040518060c0016040528060005481526020018581526020018481526020018381526020018281526020018a815250600360008054815260200190815260200160002060008201518160000155602082015181600101556040820151816002015560608201518160030190805190602001906200097f929190620009b8565b5060808201518160040190805190602001906200099e929190620009b8565b5060a0820151816005015590505050505050505050505050565b828054600181600116156101000203166002900490600052602060002090601f016020900481019282601f10620009fb57805160ff191683800117855562000a2c565b8280016001018555821562000a2c579182015b8281111562000a2b57825182559160200191906001019062000a0e565b5b50905062000a3b919062000a3f565b5090565b62000a6491905b8082111562000a6057600081600090555060010162000a46565b5090565b90565b6115c88062000a776000396000f3fe608060405234801561001057600080fd5b50600436106100625760003560e01c806307973ccf14610067578063379607f5146100855780636a9ad496146102a35780639446ec9f14610311578063b45faf511461054c578063b84a421114610939575b600080fd5b61006f610a68565b6040518082815260200191505060405180910390f35b6100b16004803603602081101561009b57600080fd5b8101908080359060200190929190505050610a6e565b604051808673ffffffffffffffffffffffffffffffffffffffff1673ffffffffffffffffffffffffffffffffffffffff16815260200180602001806020018060200180602001858103855289818151815260200191508051906020019080838360005b8381101561012f578082015181840152602081019050610114565b50505050905090810190601f16801561015c5780820380516001836020036101000a031916815260200191505b50858103845288818151815260200191508051906020019080838360005b8381101561019557808201518184015260208101905061017a565b50505050905090810190601f1680156101c25780820380516001836020036101000a031916815260200191505b50858103835287818151815260200191508051906020019080838360005b838110156101fb5780820151818401526020810190506101e0565b50505050905090810190601f1680156102285780820380516001836020036101000a031916815260200191505b50858103825286818151815260200191508051906020019080838360005b83811015610261578082015181840152602081019050610246565b50505050905090810190601f16801561028e5780820380516001836020036101000a031916815260200191505b50995050505050505050505060405180910390f35b6102cf600480360360208110156102b957600080fd5b8101908080359060200190929190505050610e38565b604051808273ffffffffffffffffffffffffffffffffffffffff1673ffffffffffffffffffffffffffffffffffffffff16815260200191505060405180910390f35b6103536004803603602081101561032757600080fd5b81019080803573ffffffffffffffffffffffffffffffffffffffff169060200190929190505050610e6b565b604051808781526020018673ffffffffffffffffffffffffffffffffffffffff1673ffffffffffffffffffffffffffffffffffffffff16815260200180602001806020018060200180602001858103855289818151815260200191508051906020019080838360005b838110156103d75780820151818401526020810190506103bc565b50505050905090810190601f1680156104045780820380516001836020036101000a031916815260200191505b50858103845288818151815260200191508051906020019080838360005b8381101561043d578082015181840152602081019050610422565b50505050905090810190601f16801561046a5780820380516001836020036101000a031916815260200191505b50858103835287818151815260200191508051906020019080838360005b838110156104a3578082015181840152602081019050610488565b50505050905090810190601f1680156104d05780820380516001836020036101000a031916815260200191505b50858103825286818151815260200191508051906020019080838360005b838110156105095780820151818401526020810190506104ee565b50505050905090810190601f1680156105365780820380516001836020036101000a031916815260200191505b509a505050505050505050505060405180910390f35b610937600480360361014081101561056357600080fd5b81019080803573ffffffffffffffffffffffffffffffffffffffff16906020019092919080359060200190929190803590602001906401000000008111156105aa57600080fd5b8201836020820111156105bc57600080fd5b803590602001918460018302840111640100000000831117156105de57600080fd5b91908080601f016020809104026020016040519081016040528093929190818152602001838380828437600081840152601f19601f8201169050808301925050505050505091929192908035906020019064010000000081111561064157600080fd5b82018360208201111561065357600080fd5b8035906020019184600183028401116401000000008311171561067557600080fd5b91908080601f016020809104026020016040519081016040528093929190818152602001838380828437600081840152601f19601f820116905080830192505050505050509192919290803590602001906401000000008111156106d857600080fd5b8201836020820111156106ea57600080fd5b8035906020019184600183028401116401000000008311171561070c57600080fd5b91908080601f016020809104026020016040519081016040528093929190818152602001838380828437600081840152601f19601f8201169050808301925050505050505091929192908035906020019064010000000081111561076f57600080fd5b82018360208201111561078157600080fd5b803590602001918460018302840111640100000000831117156107a357600080fd5b91908080601f016020809104026020016040519081016040528093929190818152602001838380828437600081840152601f19601f82011690508083019250505050505050919291929080359060200190929190803590602001909291908035906020019064010000000081111561081a57600080fd5b82018360208201111561082c57600080fd5b8035906020019184600183028401116401000000008311171561084e57600080fd5b91908080601f016020809104026020016040519081016040528093929190818152602001838380828437600081840152601f19601f820116905080830192505050505050509192919290803590602001906401000000008111156108b157600080fd5b8201836020820111156108c357600080fd5b803590602001918460018302840111640100000000831117156108e557600080fd5b91908080601f016020809104026020016040519081016040528093929190818152602001838380828437600081840152601f19601f820116905080830192505050505050509192919290505050611127565b005b6109656004803603602081101561094f57600080fd5b810190808035906020019092919050505061138b565b604051808781526020018681526020018581526020018060200180602001848152602001838103835286818151815260200191508051906020019080838360005b838110156109c15780820151818401526020810190506109a6565b50505050905090810190601f1680156109ee5780820380516001836020036101000a031916815260200191505b50838103825285818151815260200191508051906020019080838360005b83811015610a27578082015181840152602081019050610a0c565b50505050905090810190601f168015610a545780820380516001836020036101000a031916815260200191505b509850505050505050505060405180910390f35b60005481565b60006060806060806001600087815260200190815260200160002060009054906101000a900473ffffffffffffffffffffffffffffffffffffffff169450600260008673ffffffffffffffffffffffffffffffffffffffff1673ffffffffffffffffffffffffffffffffffffffff1681526020019081526020016000206002018054600181600116156101000203166002900480601f016020809104026020016040519081016040528092919081815260200182805460018160011615610100020316600290048015610b825780601f10610b5757610100808354040283529160200191610b82565b820191906000526020600020905b815481529060010190602001808311610b6557829003601f168201915b50505050509350600260008673ffffffffffffffffffffffffffffffffffffffff1673ffffffffffffffffffffffffffffffffffffffff1681526020019081526020016000206003018054600181600116156101000203166002900480601f016020809104026020016040519081016040528092919081815260200182805460018160011615610100020316600290048015610c5f5780601f10610c3457610100808354040283529160200191610c5f565b820191906000526020600020905b815481529060010190602001808311610c4257829003601f168201915b50505050509250600260008673ffffffffffffffffffffffffffffffffffffffff1673ffffffffffffffffffffffffffffffffffffffff1681526020019081526020016000206004018054600181600116156101000203166002900480601f016020809104026020016040519081016040528092919081815260200182805460018160011615610100020316600290048015610d3c5780601f10610d1157610100808354040283529160200191610d3c565b820191906000526020600020905b815481529060010190602001808311610d1f57829003601f168201915b50505050509150600260008673ffffffffffffffffffffffffffffffffffffffff1673ffffffffffffffffffffffffffffffffffffffff1681526020019081526020016000206005018054600181600116156101000203166002900480601f016020809104026020016040519081016040528092919081815260200182805460018160011615610100020316600290048015610e195780601f10610dee57610100808354040283529160200191610e19565b820191906000526020600020905b815481529060010190602001808311610dfc57829003601f168201915b5050505050905084848484849450945094509450945091939590929450565b60016020528060005260406000206000915054906101000a900473ffffffffffffffffffffffffffffffffffffffff1681565b60026020528060005260406000206000915090508060000154908060010160009054906101000a900473ffffffffffffffffffffffffffffffffffffffff1690806002018054600181600116156101000203166002900480601f016020809104026020016040519081016040528092919081815260200182805460018160011615610100020316600290048015610f435780601f10610f1857610100808354040283529160200191610f43565b820191906000526020600020905b815481529060010190602001808311610f2657829003601f168201915b505050505090806003018054600181600116156101000203166002900480601f016020809104026020016040519081016040528092919081815260200182805460018160011615610100020316600290048015610fe15780601f10610fb657610100808354040283529160200191610fe1565b820191906000526020600020905b815481529060010190602001808311610fc457829003601f168201915b505050505090806004018054600181600116156101000203166002900480601f01602080910402602001604051908101604052809291908181526020018280546001816001161561010002031660029004801561107f5780601f106110545761010080835404028352916020019161107f565b820191906000526020600020905b81548152906001019060200180831161106257829003601f168201915b505050505090806005018054600181600116156101000203166002900480601f01602080910402602001604051908101604052809291908181526020018280546001816001161561010002031660029004801561111d5780601f106110f25761010080835404028352916020019161111d565b820191906000526020600020905b81548152906001019060200180831161110057829003601f168201915b5050505050905086565b600080815480929190600101919050555089600160008054815260200190815260200160002060006101000a81548173ffffffffffffffffffffffffffffffffffffffff021916908373ffffffffffffffffffffffffffffffffffffffff1602179055506040518060c0016040528060005481526020018b73ffffffffffffffffffffffffffffffffffffffff16815260200189815260200188815260200187815260200186815250600260008c73ffffffffffffffffffffffffffffffffffffffff1673ffffffffffffffffffffffffffffffffffffffff1681526020019081526020016000206000820151816000015560208201518160010160006101000a81548173ffffffffffffffffffffffffffffffffffffffff021916908373ffffffffffffffffffffffffffffffffffffffff160217905550604082015181600201908051906020019061127c9291906114f7565b5060608201518160030190805190602001906112999291906114f7565b5060808201518160040190805190602001906112b69291906114f7565b5060a08201518160050190805190602001906112d39291906114f7565b509050506040518060c0016040528060005481526020018581526020018481526020018381526020018281526020018a815250600360008054815260200190815260200160002060008201518160000155602082015181600101556040820151816002015560608201518160030190805190602001906113549291906114f7565b5060808201518160040190805190602001906113719291906114f7565b5060a0820151816005015590505050505050505050505050565b6003602052806000526040600020600091509050806000015490806001015490806002015490806003018054600181600116156101000203166002900480601f0160208091040260200160405190810160405280929190818152602001828054600181600116156101000203166002900480156114495780601f1061141e57610100808354040283529160200191611449565b820191906000526020600020905b81548152906001019060200180831161142c57829003601f168201915b505050505090806004018054600181600116156101000203166002900480601f0160208091040260200160405190810160405280929190818152602001828054600181600116156101000203166002900480156114e75780601f106114bc576101008083540402835291602001916114e7565b820191906000526020600020905b8154815290600101906020018083116114ca57829003601f168201915b5050505050908060050154905086565b828054600181600116156101000203166002900490600052602060002090601f016020900481019282601f1061153857805160ff1916838001178555611566565b82800160010185558215611566579182015b8281111561156557825182559160200191906001019061154a565b5b5090506115739190611577565b5090565b61159991905b8082111561159557600081600090555060010161157d565b5090565b9056fea165627a7a72305820d19bd3e52fc519be9790e0a110d08c44d736781a0578e7ed01913c21de4173180029",
  "source": "pragma solidity ^0.5.0;\r\n\r\ncontract engine{\r\n\r\n    struct user_parameter{\r\n        uint u_id;\r\n        uint civil_score;\r\n        uint interestRate;\r\n        string city;\r\n        string salary;\r\n        uint permission;\r\n    }\r\n\r\n    struct user_info  {\r\n        uint u_id;\r\n        address block_id;\r\n        string name;\r\n        string phno;\r\n        string email;\r\n        string house_address;\r\n\r\n    }\r\n    uint public userCount;\r\n    mapping(uint => address) public integerset;\r\n\r\n    mapping(address => user_info) public userinfo; //private\r\n\r\n    mapping(uint => user_parameter) public personalset;\r\n\r\n    constructor() public{\r\n        addUser(0xaDE14d335409696E0057151c4dF025E4AF83d228,1,\"parth\",\"989818\", \"part1@gm.com\",\"keshav\",800,12,\"delhi\",\"100000\");\r\n        addUser(0x770A036484E998662d29196F39887B761ecadDB1,1,\"parth2\",\"989811\", \"part2@gm.com\",\"keshav2\",800,12,\"delhi2\",\"200000\");\r\n        addUser(0xC257274276a4E539741Ca11b590B9447B26A8051,1,\"parth3\",\"989817\", \"part3@gm.com\",\"keshav3\",800,12,\"delhi3\",\"300000\");\r\n        addUser(0xaDE14d335409696E0057151c4dF025E4AF83d228,1,\"parth4\",\"989817\", \"part4@gm.com\",\"keshav4\",800,12,\"delhi4\",\"400000\");\r\n        addUser(0x3E6C109e49A7A1eFfE3Bb82EF436bf524E71ECC4,1,\"parth5\",\"989817\", \"par5t@gm.com\",\"keshav5\",800,12,\"delhi5\",\"500000\");\r\n    }\r\n\r\n    function addUser(address aa, uint _perm,string memory _name,string memory _phno,string memory _email,string memory _home,uint _civilscore,uint _interestRate,string memory _city,string memory _salary) public{\r\n        userCount++;\r\n        integerset[userCount]=aa;\r\n        userinfo[aa]=user_info(userCount,aa,_name,_phno,_email,_home);\r\n        personalset[userCount]=user_parameter(userCount,_civilscore,_interestRate,_city,_salary,_perm);\r\n\r\n    }\r\n\r\n    function claim(uint _id) public returns (address a1,string memory out1,string memory out2,string memory out3,string memory out4) {\r\n        \r\n        a1 = integerset[_id];\r\n        out1 = userinfo[a1].name;\r\n        out2 = userinfo[a1].phno;\r\n        out3 = userinfo[a1].email;\r\n        out4 = userinfo[a1].house_address;\r\n        return (a1,out1,out2,out3,out4);\r\n\r\n    }\r\n\r\n}",
  "sourcePath": "C:/Users/Parth/Desktop/project/Dapp/Ad_Engine/contracts/engine.sol",
  "compiler": {
    "name": "solc",
    "version": "0.5.8+commit.23d335f2.Emscripten.clang"
  },
  "schemaVersion": "3.0.10",
  "updatedAt": "2019-06-15T06:49:05.219Z",
  "devdoc": {
    "methods": {}
  },
  "userdoc": {
    "methods": {}
  }
}