{
  "contractName": "engine",
  "abi": [
    {
      "constant": true,
      "inputs": [],
      "name": "userCount",
      "outputs": [
        {
          "name": "",
          "type": "uint256"
        }
      ],
      "payable": false,
      "stateMutability": "view",
      "type": "function"
    },
    {
      "constant": true,
      "inputs": [
        {
          "name": "",
          "type": "uint256"
        }
      ],
      "name": "personalset",
      "outputs": [
        {
          "name": "u_id",
          "type": "uint256"
        },
        {
          "name": "civil_score",
          "type": "uint256"
        },
        {
          "name": "interestRate",
          "type": "uint256"
        },
        {
          "name": "city",
          "type": "string"
        },
        {
          "name": "salary",
          "type": "string"
        },
        {
          "name": "permission",
          "type": "uint256"
        }
      ],
      "payable": false,
      "stateMutability": "view",
      "type": "function"
    },
    {
      "inputs": [],
      "payable": false,
      "stateMutability": "nonpayable",
      "type": "constructor"
    },
    {
      "constant": false,
      "inputs": [
        {
          "name": "aa",
          "type": "address"
        },
        {
          "name": "_perm",
          "type": "uint256"
        },
        {
          "name": "_name",
          "type": "string"
        },
        {
          "name": "_phno",
          "type": "string"
        },
        {
          "name": "_email",
          "type": "string"
        },
        {
          "name": "_home",
          "type": "string"
        },
        {
          "name": "_civilscore",
          "type": "uint256"
        },
        {
          "name": "_interestRate",
          "type": "uint256"
        },
        {
          "name": "_city",
          "type": "string"
        },
        {
          "name": "_salary",
          "type": "string"
        }
      ],
      "name": "addUser",
      "outputs": [],
      "payable": false,
      "stateMutability": "nonpayable",
      "type": "function"
    },
    {
      "constant": false,
      "inputs": [
        {
          "name": "_id",
          "type": "uint256"
        }
      ],
      "name": "claim",
      "outputs": [
        {
          "name": "a1",
          "type": "address"
        },
        {
          "name": "out1",
          "type": "string"
        },
        {
          "name": "out2",
          "type": "string"
        },
        {
          "name": "out3",
          "type": "string"
        },
        {
          "name": "out4",
          "type": "string"
        }
      ],
      "payable": false,
      "stateMutability": "nonpayable",
      "type": "function"
    }
  ],
  "bytecode": "0x60806040523480156200001157600080fd5b506200018273ade14d335409696e0057151c4df025e4af83d22860016040518060400160405280600581526020017f70617274680000000000000000000000000000000000000000000000000000008152506040518060400160405280600b81526020017f3131312d3131312d3131310000000000000000000000000000000000000000008152506040518060400160405280600d81526020017f70617274683140676d2e636f6d000000000000000000000000000000000000008152506040518060400160405280600281526020017f4350000000000000000000000000000000000000000000000000000000000000815250610320600a6040518060400160405280600581526020017f44656c68690000000000000000000000000000000000000000000000000000008152506040518060400160405280600681526020017f31303030303000000000000000000000000000000000000000000000000000008152506200074860201b60201c565b620002f273770a036484e998662d29196f39887b761ecaddb160016040518060400160405280600681526020017f70617274683200000000000000000000000000000000000000000000000000008152506040518060400160405280600b81526020017f3232322d3232322d3232320000000000000000000000000000000000000000008152506040518060400160405280600d81526020017f70617274683240676d2e636f6d000000000000000000000000000000000000008152506040518060400160405280600c81526020017f6b657368617620707572616d0000000000000000000000000000000000000000815250610384600c6040518060400160405280600681526020017f4d756d62616900000000000000000000000000000000000000000000000000008152506040518060400160405280600681526020017f32303030303000000000000000000000000000000000000000000000000000008152506200074860201b60201c565b6200046273c257274276a4e539741ca11b590b9447b26a805160006040518060400160405280600681526020017f70617274683300000000000000000000000000000000000000000000000000008152506040518060400160405280600b81526020017f3333332d3333332d3333330000000000000000000000000000000000000000008152506040518060400160405280600d81526020017f70617274683340676d2e636f6d000000000000000000000000000000000000008152506040518060400160405280600b81526020017f6173686f6b207669686172000000000000000000000000000000000000000000815250610708600c6040518060400160405280600581526020017f44656c68690000000000000000000000000000000000000000000000000000008152506040518060400160405280600681526020017f33303030303000000000000000000000000000000000000000000000000000008152506200074860201b60201c565b620005d273ade14d335409696e0057151c4df025e4af83d22860016040518060400160405280600681526020017f70617274683400000000000000000000000000000000000000000000000000008152506040518060400160405280600b81526020017f3434342d3434342d3434340000000000000000000000000000000000000000008152506040518060400160405280600d81526020017f70617274683440676d2e636f6d000000000000000000000000000000000000008152506040518060400160405280600981526020017f63697479207061726b00000000000000000000000000000000000000000000008152506103e8600c6040518060400160405280600781526020017f4c75636b6e6f77000000000000000000000000000000000000000000000000008152506040518060400160405280600681526020017f34303030303000000000000000000000000000000000000000000000000000008152506200074860201b60201c565b62000742733e6c109e49a7a1effe3bb82ef436bf524e71ecc460006040518060400160405280600681526020017f70617274683500000000000000000000000000000000000000000000000000008152506040518060400160405280600b81526020017f3535352d3535352d3535350000000000000000000000000000000000000000008152506040518060400160405280600d81526020017f70617274683540676d2e636f6d000000000000000000000000000000000000008152506040518060400160405280600681526020017f726f68696e690000000000000000000000000000000000000000000000000000815250610384600c6040518060400160405280600a81526020017f4368616e646967617268000000000000000000000000000000000000000000008152506040518060400160405280600681526020017f35303030303000000000000000000000000000000000000000000000000000008152506200074860201b60201c565b62000a67565b600080815480929190600101919050555089600160008054815260200190815260200160002060006101000a81548173ffffffffffffffffffffffffffffffffffffffff021916908373ffffffffffffffffffffffffffffffffffffffff1602179055506040518060c0016040528060005481526020018b73ffffffffffffffffffffffffffffffffffffffff16815260200189815260200188815260200187815260200186815250600260008c73ffffffffffffffffffffffffffffffffffffffff1673ffffffffffffffffffffffffffffffffffffffff1681526020019081526020016000206000820151816000015560208201518160010160006101000a81548173ffffffffffffffffffffffffffffffffffffffff021916908373ffffffffffffffffffffffffffffffffffffffff16021790555060408201518160020190805190602001906200089f929190620009b8565b506060820151816003019080519060200190620008be929190620009b8565b506080820151816004019080519060200190620008dd929190620009b8565b5060a0820151816005019080519060200190620008fc929190620009b8565b509050506040518060c0016040528060005481526020018581526020018481526020018381526020018281526020018a815250600360008054815260200190815260200160002060008201518160000155602082015181600101556040820151816002015560608201518160030190805190602001906200097f929190620009b8565b5060808201518160040190805190602001906200099e929190620009b8565b5060a0820151816005015590505050505050505050505050565b828054600181600116156101000203166002900490600052602060002090601f016020900481019282601f10620009fb57805160ff191683800117855562000a2c565b8280016001018555821562000a2c579182015b8281111562000a2b57825182559160200191906001019062000a0e565b5b50905062000a3b919062000a3f565b5090565b62000a6491905b8082111562000a6057600081600090555060010162000a46565b5090565b90565b61103d8062000a776000396000f3fe608060405234801561001057600080fd5b506004361061004c5760003560e01c806307973ccf14610051578063379607f51461006f578063b45faf511461028d578063b84a42111461067a575b600080fd5b6100596107a9565b6040518082815260200191505060405180910390f35b61009b6004803603602081101561008557600080fd5b81019080803590602001909291905050506107af565b604051808673ffffffffffffffffffffffffffffffffffffffff1673ffffffffffffffffffffffffffffffffffffffff16815260200180602001806020018060200180602001858103855289818151815260200191508051906020019080838360005b838110156101195780820151818401526020810190506100fe565b50505050905090810190601f1680156101465780820380516001836020036101000a031916815260200191505b50858103845288818151815260200191508051906020019080838360005b8381101561017f578082015181840152602081019050610164565b50505050905090810190601f1680156101ac5780820380516001836020036101000a031916815260200191505b50858103835287818151815260200191508051906020019080838360005b838110156101e55780820151818401526020810190506101ca565b50505050905090810190601f1680156102125780820380516001836020036101000a031916815260200191505b50858103825286818151815260200191508051906020019080838360005b8381101561024b578082015181840152602081019050610230565b50505050905090810190601f1680156102785780820380516001836020036101000a031916815260200191505b50995050505050505050505060405180910390f35b61067860048036036101408110156102a457600080fd5b81019080803573ffffffffffffffffffffffffffffffffffffffff16906020019092919080359060200190929190803590602001906401000000008111156102eb57600080fd5b8201836020820111156102fd57600080fd5b8035906020019184600183028401116401000000008311171561031f57600080fd5b91908080601f016020809104026020016040519081016040528093929190818152602001838380828437600081840152601f19601f8201169050808301925050505050505091929192908035906020019064010000000081111561038257600080fd5b82018360208201111561039457600080fd5b803590602001918460018302840111640100000000831117156103b657600080fd5b91908080601f016020809104026020016040519081016040528093929190818152602001838380828437600081840152601f19601f8201169050808301925050505050505091929192908035906020019064010000000081111561041957600080fd5b82018360208201111561042b57600080fd5b8035906020019184600183028401116401000000008311171561044d57600080fd5b91908080601f016020809104026020016040519081016040528093929190818152602001838380828437600081840152601f19601f820116905080830192505050505050509192919290803590602001906401000000008111156104b057600080fd5b8201836020820111156104c257600080fd5b803590602001918460018302840111640100000000831117156104e457600080fd5b91908080601f016020809104026020016040519081016040528093929190818152602001838380828437600081840152601f19601f82011690508083019250505050505050919291929080359060200190929190803590602001909291908035906020019064010000000081111561055b57600080fd5b82018360208201111561056d57600080fd5b8035906020019184600183028401116401000000008311171561058f57600080fd5b91908080601f016020809104026020016040519081016040528093929190818152602001838380828437600081840152601f19601f820116905080830192505050505050509192919290803590602001906401000000008111156105f257600080fd5b82018360208201111561060457600080fd5b8035906020019184600183028401116401000000008311171561062657600080fd5b91908080601f016020809104026020016040519081016040528093929190818152602001838380828437600081840152601f19601f820116905080830192505050505050509192919290505050610b9c565b005b6106a66004803603602081101561069057600080fd5b8101908080359060200190929190505050610e00565b604051808781526020018681526020018581526020018060200180602001848152602001838103835286818151815260200191508051906020019080838360005b838110156107025780820151818401526020810190506106e7565b50505050905090810190601f16801561072f5780820380516001836020036101000a031916815260200191505b50838103825285818151815260200191508051906020019080838360005b8381101561076857808201518184015260208101905061074d565b50505050905090810190601f1680156107955780820380516001836020036101000a031916815260200191505b509850505050505050505060405180910390f35b60005481565b600060608060608060016003600088815260200190815260200160002060050154146107da57600080fd5b6001600087815260200190815260200160002060009054906101000a900473ffffffffffffffffffffffffffffffffffffffff169450600260008673ffffffffffffffffffffffffffffffffffffffff1673ffffffffffffffffffffffffffffffffffffffff1681526020019081526020016000206002018054600181600116156101000203166002900480601f0160208091040260200160405190810160405280929190818152602001828054600181600116156101000203166002900480156108e65780601f106108bb576101008083540402835291602001916108e6565b820191906000526020600020905b8154815290600101906020018083116108c957829003601f168201915b50505050509350600260008673ffffffffffffffffffffffffffffffffffffffff1673ffffffffffffffffffffffffffffffffffffffff1681526020019081526020016000206003018054600181600116156101000203166002900480601f0160208091040260200160405190810160405280929190818152602001828054600181600116156101000203166002900480156109c35780601f10610998576101008083540402835291602001916109c3565b820191906000526020600020905b8154815290600101906020018083116109a657829003601f168201915b50505050509250600260008673ffffffffffffffffffffffffffffffffffffffff1673ffffffffffffffffffffffffffffffffffffffff1681526020019081526020016000206004018054600181600116156101000203166002900480601f016020809104026020016040519081016040528092919081815260200182805460018160011615610100020316600290048015610aa05780601f10610a7557610100808354040283529160200191610aa0565b820191906000526020600020905b815481529060010190602001808311610a8357829003601f168201915b50505050509150600260008673ffffffffffffffffffffffffffffffffffffffff1673ffffffffffffffffffffffffffffffffffffffff1681526020019081526020016000206005018054600181600116156101000203166002900480601f016020809104026020016040519081016040528092919081815260200182805460018160011615610100020316600290048015610b7d5780601f10610b5257610100808354040283529160200191610b7d565b820191906000526020600020905b815481529060010190602001808311610b6057829003601f168201915b5050505050905084848484849450945094509450945091939590929450565b600080815480929190600101919050555089600160008054815260200190815260200160002060006101000a81548173ffffffffffffffffffffffffffffffffffffffff021916908373ffffffffffffffffffffffffffffffffffffffff1602179055506040518060c0016040528060005481526020018b73ffffffffffffffffffffffffffffffffffffffff16815260200189815260200188815260200187815260200186815250600260008c73ffffffffffffffffffffffffffffffffffffffff1673ffffffffffffffffffffffffffffffffffffffff1681526020019081526020016000206000820151816000015560208201518160010160006101000a81548173ffffffffffffffffffffffffffffffffffffffff021916908373ffffffffffffffffffffffffffffffffffffffff1602179055506040820151816002019080519060200190610cf1929190610f6c565b506060820151816003019080519060200190610d0e929190610f6c565b506080820151816004019080519060200190610d2b929190610f6c565b5060a0820151816005019080519060200190610d48929190610f6c565b509050506040518060c0016040528060005481526020018581526020018481526020018381526020018281526020018a81525060036000805481526020019081526020016000206000820151816000015560208201518160010155604082015181600201556060820151816003019080519060200190610dc9929190610f6c565b506080820151816004019080519060200190610de6929190610f6c565b5060a0820151816005015590505050505050505050505050565b6003602052806000526040600020600091509050806000015490806001015490806002015490806003018054600181600116156101000203166002900480601f016020809104026020016040519081016040528092919081815260200182805460018160011615610100020316600290048015610ebe5780601f10610e9357610100808354040283529160200191610ebe565b820191906000526020600020905b815481529060010190602001808311610ea157829003601f168201915b505050505090806004018054600181600116156101000203166002900480601f016020809104026020016040519081016040528092919081815260200182805460018160011615610100020316600290048015610f5c5780601f10610f3157610100808354040283529160200191610f5c565b820191906000526020600020905b815481529060010190602001808311610f3f57829003601f168201915b5050505050908060050154905086565b828054600181600116156101000203166002900490600052602060002090601f016020900481019282601f10610fad57805160ff1916838001178555610fdb565b82800160010185558215610fdb579182015b82811115610fda578251825591602001919060010190610fbf565b5b509050610fe89190610fec565b5090565b61100e91905b8082111561100a576000816000905550600101610ff2565b5090565b9056fea165627a7a723058208e44114ef5a1333696ce683d33a6f461da838e15210ee7bfef35db682404994d0029",
  "source": "pragma solidity ^0.5.0;\r\n\r\ncontract engine{\r\n\r\n    struct user_parameter{\r\n        uint u_id;\r\n        uint civil_score;\r\n        uint interestRate;\r\n        string city;\r\n        string salary;\r\n        uint permission;\r\n//        string param6;\r\n    }\r\n\r\n    struct user_info  {\r\n        uint u_id;\r\n        address block_id;\r\n        string name;\r\n        string phno;\r\n        string email;\r\n        string house_address;\r\n\r\n    }\r\n    uint public userCount;\r\n    mapping(uint => address) private integerset;\r\n\r\n    mapping(address => user_info) private userinfo; //private\r\n\r\n    mapping(uint => user_parameter) public personalset;\r\n\r\n    constructor() public{\r\n        addUser(0xaDE14d335409696E0057151c4dF025E4AF83d228,1,\"parth\",\"111-111-111\", \"parth1@gm.com\",\"CP\",800,10,\"Delhi\",\"100000\");\r\n        addUser(0x770A036484E998662d29196F39887B761ecadDB1,1,\"parth2\",\"222-222-222\", \"parth2@gm.com\",\"keshav puram\",900,12,\"Mumbai\",\"200000\");\r\n        addUser(0xC257274276a4E539741Ca11b590B9447B26A8051,0,\"parth3\",\"333-333-333\", \"parth3@gm.com\",\"ashok vihar\",1800,12,\"Delhi\",\"300000\");\r\n        addUser(0xaDE14d335409696E0057151c4dF025E4AF83d228,1,\"parth4\",\"444-444-444\", \"parth4@gm.com\",\"city park\",1000,12,\"Lucknow\",\"400000\");\r\n        addUser(0x3E6C109e49A7A1eFfE3Bb82EF436bf524E71ECC4,0,\"parth5\",\"555-555-555\", \"parth5@gm.com\",\"rohini\",900,12,\"Chandigarh\",\"500000\");\r\n    }\r\n\r\n    function addUser(address aa, uint _perm,string memory _name,string memory _phno,string memory _email,string memory _home,uint _civilscore,uint _interestRate,string memory _city,string memory _salary) \r\n    public{\r\n        userCount++;\r\n        integerset[userCount]=aa;\r\n        userinfo[aa]=user_info(userCount,aa,_name,_phno,_email,_home);\r\n        personalset[userCount]=user_parameter(userCount,_civilscore,_interestRate,_city,_salary,_perm);\r\n\r\n    }\r\n\r\n    function claim(uint _id) \r\n    public\r\n    returns (address a1,string memory out1,string memory out2,string memory out3,string memory out4) {\r\n        require(personalset[_id].permission==1);\r\n        a1 = integerset[_id];\r\n        out1 = userinfo[a1].name;\r\n        out2 = userinfo[a1].phno;\r\n        out3 = userinfo[a1].email;\r\n        out4 = userinfo[a1].house_address;\r\n        return (a1,out1,out2,out3,out4);\r\n\r\n    }\r\n\r\n}",
  "sourcePath": "C:/Users/Parth/Desktop/project/Dapp/Ad_Engine/contracts/engine.sol",
  "compiler": {
    "name": "solc",
    "version": "0.5.8+commit.23d335f2.Emscripten.clang"
  },
  "schemaVersion": "3.0.10",
  "updatedAt": "2019-06-16T06:09:04.621Z",
  "devdoc": {
    "methods": {}
  },
  "userdoc": {
    "methods": {}
  }
}